:1006B2003C473EBBB6D3ADCAB9D3C3003C473EC4E8
:1006C200E3BAC3A3ACD6F7C8CB003C473EB5C6D20B
:1006D200D1B4F2BFAA003C473EB5C6D2D1B9D8B117
:1006E200D50D0A003C473EB5E7CAD3BBFAD2D1B416
:1006F200F2BFAA0D0A003C473EB5E7CAD3BBFAD205
:10070200D1B9D8B1D50D0A003C473EB1F9CFE4D2F8
:10071200D1B4F2BFAA0D0A003C473EB1F9CFE4D2F0
:10072200D1B9D8B1D50D0A003C473EBFD5CCF5D2E0
:10073200D1B4F2BFAA0D0A003C473EBFD5CCF5D2D8
:10074200D1B9D8B1D50D0A003C473ED2D1C8ABB21F
:10075200BFB4F2BFAA0D0A003C473ED2D1C8ABB229
:09076200BFB9D8B1D50D0A0000A1
:06000E000157000156003D
:100A6F00E4F5467592FFF591C294C295C296C2976E
:100A7F00120D65120CC9120C1C120CF5E47857F606
:100A8F007BFF7A0679B2120D1C7857E61460FA24B0
:100A9F00F1601824DF60F22431702078577601124C
:100AAF000B2FEF70E47857763180DE1200067859FD
:100ABF00EFF612057BE47857F680CEE47857F68090
:010ACF00C85E
:100D6500B2C2120D8FB2C2120D8FB2C2120D8FB266
:0C0D7500C2120D8FB2C2120D8FB2C2224A
:100CC9007580FFE4F59075A0FF75B0FF75C0FF53FF
:100CD9008E7F438901F58A758C28C28DD28CD2A961
:0C0CE900C2C3D289D2A8D2AF75C13D228F
:0A0D9C0000007F057E49DEFEDFFC4B
:010DA600222A
:080D41008F518E508D4F8C4E36
:100D4900E4F552F553F554F555784E74FF120469DC
:0B0D5900EC4D4E4F6005120D9C80EE2B
:010D6400226C
:0C0D8F007F117ED07D1BDDFEDEFCDFFA54
:010D9B002235
:03000300020C5D8F
:100C5D00C0E0C0F0C083C082C0D075D000C000C05D
:100C6D0001C002C003C004C005C006C007120815AC
:100C7D00D007D006D005D004D003D002D001D000CB
:0B0C8D00D0D0D082D083D0F0D0E03275
:10057B008F47EF700F7556017BFF7A0679BE120D10
:10058B001CC2C222E556640160030206B1F556D2C5
:10059B00C2E547120487063801064202064C0406E0
:1005AB005614066015066A16067417067E1806881A
:1005BB001906981A06A81B06A81C06A81D06A81E35
:1005CB0006A81F06A82006A82106A82206A823060F
:1005DB00A82406A82506A82606A82706A82806A844
:1005EB002906A82A06A82B06A82C06A82D06A82E95
:1005FB0006A82F06A83006A83106A83206A833068F
:10060B00A83406A83506A83606A83706A83806A8C3
:10061B003906A83A06A83B06A83C06A83D06A83E04
:10062B0006A83F06A84006A841000006B1D2977B5A
:10063B00FF7A0679CC806CC2977BFF7A0679D880DB
:10064B0062D2967BFF7A0679E68058C2967BFF7A58
:10065B000679F8804ED2957BFF7A07790A8044C2DF
:10066B00957BFF7A07791A803AD2947BFF7A0779C8
:10067B002A8030C2947BFF7A07793A8026D297D2B0
:10068B0096D295D2947BFF7A07794A8016C297C28D
:10069B0096C295C2947BFF7A07795A80067BFF7AC4
:0706AB0007796A120D1C2201
:03000B00020DBD26
:0A0DBD00758A00758C2875C13D325F
:100026007869616F206A69650000000000000000C1
:10003600000000006B61692064656E6700000000C7
:1000460000000000000000006775616E2064656EA8
:100056006700000000000000000000006461206BE3
:100066006169206469616E207368690000000000A0
:100076006775616E206269206469616E20736869C4
:10008600000000006461206B61692062696E672070
:100096007869616E670000006775616E206269208D
:1000A60062696E67207869616E6700006461206B23
:1000B6006169206B6F6E67207469616F00000000D4
:1000C6006775616E206269206B6F6E672074696167
:1000D6006F0000007175616E206275206461206B8F
:1000E60061690000000000007175616E2062752074
:1000F6006775616E20626900000000000000000064
:1001060000000000000000000000000000000000E9
:1001160000000000000000000000000000000000D9
:1001260000000000000000000000000000000000C9
:1001360000000000000000000000000000000000B9
:100406000000000000000000000102041415161789
:1004160018191A1B1C1D1E1F2021222324252627DE
:1004260028292A2B2C2D2E2F3031323334353637CE
:0A04360038393A3B3C3D3E3F40415F
:100C1C00D2B57F057E007D007C00120D41C2B57FF0
:100C2C00057E007D007C00120D41D2B57F057E0053
:100C3C007D007C00120D41C2A17F057E007D007CF1
:100C4C0000120D41D2A17F057E007D007C00020DBB
:010C5C004156
:1008B4007F06120DB27D357F17120DA77F0A7E00C9
:1008C4007D007C00120D417F06120DB27D037F89ED
:1008D400120DA77F057E007D007C00120D417D4333
:1008E4007FCF120DA77F057E007D007C00120D4195
:1008F4007D027FCB120DA77D0A7F11120DA7E4FDA7
:100904007F1E120DA77D3F7F19120DA77D487F1B07
:10091400120DA77D1F7F1D120DA77F0A7E007D008B
:100924007C00120D417D047FCD120DA77F057E0052
:100934007D007C00120D41E4FD7FB9120DA77D4FAF
:0C0944007FCF120DA77DFF7F6F020DA773
:100AD0001208B4E4FD7FBD120DA77D487F17120DEB
:100AE000A77F0A7E007D007C00120D417D807F3C47
:100AF000120DA77D077F3E120DA77DFF7F38120DD7
:100B0000A77D077F3A120DA7E4FD7F40120DA77D58
:100B1000087F42120DA7E4FD7F44120DA77D087FD8
:0F0B200046120DA77F017E007D007C00020D4173
:10081500E4F545C2A87F2B120DB27858A607E4FD72
:100825007F29120DA7E4FD7F02120DA77858E63047
:10083500E4377FB2120DB2EF6421702D7FBF120D28
:10084500B2EF643570237FBA120DB28F457E00D3A7
:10085500EF9400748094804010D3EF9404748094D6
:1008650080500678577610800478577611E4FD7F1E
:100875002B120DA7E4FD7F1C120DA7E4FD7F2912A5
:100885000DA7E4FD7F02120DA7E4FD7F2B120DA736
:10089500E4FD7FBA120DA7E4FD7FBC120DA77D0113
:0E08A5007F08120DA7E4FD7F08120DA7D2A850
:0108B3002222
:100B2F00E4F547F548F547C3E5479405748094808D
:100B3F00504012001C7F327E007D007C00120D4160
:100B4F0012076BEF700280117F0A7E007D007C0020
:100B5F00120D41120950EF7010120C1C7F327E00E3
:100B6F007D007C00120D418005754801800405470A
:040B7F0080B5AF4846
:010B8300224F
:100C9800E4F54DF54CC3E54C940A74809480501EDD
:100CA8007FB2120DB2EF64217005754D01800F7F80
:100CB8000A7E007D007C00120D41054C80D7AF4DA7
:010CC8002209
:03001C00020AD005
:10095000C2A87D437F35120DA77D097F1C120DA70C
:100960007D207FBD120DA77D017F08120DA77F019D
:100970007E007D007C00120D41E4FD7F08120DA772
:100980007F017E007D007C00120D41120C98EF70FB
:1009900002FF227D0B7F1C120DA77DFF7FB2120D7F
:1009A000A77F017E007D007C00120D417D067F3710
:1009B000120DA77F017E007D007C00120D417D0697
:1009C0007F37120DA77F057E007D007C00120D4150
:1009D0007D107F29120DA7E4FD7FBD120DA7D2A8BF
:0309E0007F012272
:10076B00754A01E4F549C3E549943274809480409D
:10077B0003020812120C98EF7005F54A020812E5F5
:10078B004990040E93FD7FC1120DA7E4FD7FC312A8
:10079B000DA77D047F08120DA77F017E007D007CD5
:1007AB0000120D41E4FD7F08120DA77F017E007D35
:1007BB00007C00120D41E4F54BC3E54B941474809F
:1007CB009480502975F014E549A42426F582E5F0B0
:1007DB003400F583E582254BF582E43583F583E41C
:1007EB0093FD60097F05120DA7054B80CCAD4B7FA8
:1007FB00B9120DA77DFF7FB2120DA77D047F3712B3
:09080B000DA70549020771AF4A6F
:0108140022C1
:050006007FC5020DB2F0
:0B0DA700908100EFF0908000EDF02242
:0B0DB200908100EFF0908000E0FF2235
:07001400021125800110001C
:100CF500759850758920AE11AF12AB07AA06E4F9B5
:100D0500F8FF7EE1FDFC120BD81204598F8B8F8DF5
:070D1500D28ED2ACD2AF2256
:0E0D8100C2ACC2998F993099FDC299D2AC22B2
:100D1C008B488A49894AAB48AA49A94A12044060BF
:100D2C0013054AE54A7002054914F9120440FF12F2
:050D3C000D8180E222A0
:03002300020B8449
:100B8400C0E0C0D075D008309845C29874132510C1
:100B9400F8A6990510C3E51094317480948040033D
:100BA400751000C3E510940374809480402174137D
:100BB4002510F8E664F8701774122510F8E664F846
:100BC400700D74112510F8E664F8700375C760D0D1
:040BD400D0D0E0326B
:030000000209E30F
:0C09E300787FE4F6D8FD758159020A2ADD
:10044000BB010689828A83E0225002E722BBFE02BA
:09045000E32289828A83E49322ED
:100BD800C2D5E830E70FB2D5E4C39BFBE49AFAE448
:100BE80099F9E498F8EC30E717B2D5120C0E120414
:100BF800E9E4C39BFBE49AFAE499F9E498F88003E2
:100C08001204E930D50DE4C39FFFE49EFEE49DFD88
:040C1800E49CFC223A
:0E045900C3E49FFFE49EFEE49DFDE49CFC22B4
:100467007401FF3395E0FEFDFC080808E6CF2FF680
:1004770018E6CE3EF618E6CD3DF618E6CC3CF62259
:10048700D083D082F8E4937012740193700DA3A304
:1004970093F8740193F5828883E473740293686018
:0604A700EFA3A3A380DF18
:1009EF00020A6FE493A3F8E493A34003F68001F2A5
:1009FF0008DFF48029E493A3F85407240CC8C33309
:100A0F00C4540F4420C8834004F456800146F6DFD7
:100A1F00E4800B010204081020408090000EE47E59
:100A2F00019360BCA3FF543F30E509541FFEE493CC
:100A3F00A360010ECF54C025E060A840B8E493A393
:100A4F00FAE493A3F8E493A3C8C582C8CAC583CABE
:100A5F00F0A3C8C582C8CAC583CADFE9DEE780BE76
:01001B0000E4
:1004AD0075F008758200EF2FFFEE33FECD33CDCC06
:1004BD0033CCC58233C5829BED9AEC99E582984089
:1004CD000CF582EE9BFEED9AFDEC99FC0FD5F0D666
:1004DD00E4CEFBE4CDFAE4CCF9A88222B800C1B990
:1004ED000059BA002DEC8BF084CFCECDFCE5F0CBCE
:1004FD00F97818EF2FFFEE33FEED33FDEC33FCEB07
:10050D0033FB10D703994004EB99FB0FD8E5E4F9C1
:10051D00FA227818EF2FFFEE33FEED33FDEC33FCAE
:10052D00C933C910D7059BE99A4007EC9BFCE99AA2
:10053D00F90FD8E0E4C9FAE4CCFB2275F010EF2FE7
:10054D00FFEE33FEED33FDCC33CCC833C810D707E7
:10055D009BEC9AE899400AED9BFDEC9AFCE899F822
:0E056D000FD5F0DAE4CDFBE4CCFAE4C8F922B5
:00000001FF
